:40000000020B55008F828E83E0540100000070F82278FFE4F6D8FD020BB3EC4D6011E8497017ED33EC3304600DE4FCFFFEFD22E933E8330470F80201CA12019558046009AC
:40004000E4CC248150062850090201D42840030201D1C0E0EB4A7044B98006D0E0FB0201C0EF4E701CBD8008EBFFEAFEE9FD80EBE98DF0A4FEE5F0020103E9CDF9EAFEEB72
:40008000FFEF89F0A4FCE5F0CE89F0A42EFFE435F0CD89F0A42DFEE435F08067EF4E7005BD80D780C3EF8BF0A4ACF0EE8BF0A42CFCE435F0F8EF8AF0A42CE5F038FCE433FC
:4000C000CB8DF0A42CFCE5F03BF8EE8AF0A42CFCE5F038F8E433CF89F0A42CFCE5F038CF3400CE89F0A42FFFE5F03EFEE433C98DF0A42EFEE5F039CD8AF0A42FFFE5F03EDF
:40010000FEE43DFD33D0E0FB50070BBB000F0201D4EC2CFCEF33FFEE33FEED33FD0201AC75F020800E75F010800575F0087D007E007F003392D530D503120357EC33401031
:40014000EF33FFEE33FEED33FDEC33FCD5F0ED22E5F0247EA2D513CC92E7CDCEFF22EDD2E7CD33EC3392D524814006E4FFFEFDFC22FCE4CFCECDCC24E0501174FF80EDC300
:40018000CC13CCCD13CDCE13CECF13CF0470F030D5DE020357E9D2E7C933E833F892D5EDD2E7CD33EC33FC5002B2D522EC30E7100FBF000C0EBE00080DBD00040BEB601417
:4001C000A2D5EB13FCED92E7FD2274FFFCFDFEFF22E480F8A2D574FF13FC7D80E480EFBB010689828A83E0225002E722BBFE02E32289828A83E49322BB010689828A83F067
:40020000225002F722BBFE01F322C5F0F8A3E028F0C5F0F8E582158270021583E038F022EF2BFFEE3AFEED39FDEC38FC22E88FF0A4CC8BF0A42CFCE98EF0A42CFC8AF0EDDF
:40024000A42CFCEA8EF0A4CDA8F08BF0A42DCC3825F0FDE98FF0A42CCD35F0FCEB8EF0A4FEA9F0EB8FF0A4CFC5F02ECD39FEE43CFCEAA42DCE35F0FDE43CFC2275F008756A
:400280008200EF2FFFEE33FECD33CDCC33CCC58233C5829BED9AEC99E58298400CF582EE9BFEED9AFDEC99FC0FD5F0D6E4CEFBE4CDFAE4CCF9A88222B800C1B90059BA00F6
:4002C0002DEC8BF084CFCECDFCE5F0CBF97818EF2FFFEE33FEED33FDEC33FCEB33FB10D703994004EB99FB0FD8E5E4F9FA227818EF2FFFEE33FEED33FDEC33FCC933C910E6
:40030000D7059BE99A4007EC9BFCE99AF90FD8E0E4C9FAE4CCFB2275F010EF2FFFEE33FEED33FDCC33CCC833C810D7079BEC9AE899400AED9BFDEC9AFCE899F80FD5F0DADE
:40034000E4CDFBE4CCFAE4C8F922EF4BFFEE4AFEED49FDEC48FC22C3E49FFFE49EFEE49DFDE49CFC22EB9FF5F0EA9E42F0E99D42F0E89C45F022E8600FECC313FCED13FDBD
:40038000EE13FEEF13FFD8F122E8600FEFC333FFEE33FEED33FDEC33FCD8F122BB010789828A830203D65005E9F8020571BBFE05E9F802057D89828A83020589BB0107895A
:4003C000828A830203EE5005E9F8020599BBFE05E9F80205A522E0FCA3E0FDA3E0FEA3E0FF22E0F8A3E0F9A3E0FAA3E0FB22ECF0A3EDF0A3EEF0A3EFF022E0FBA3E0FAA3CA
:40040000E0F922EBF0A3EAF0A3E9F022E493FB740193FA740293F922D083D082F8E4937012740193700DA3A393F8740193F5828883E4737402936860EFA3A3A380DFE51663
:400440002582F582E5153583F583B515048582162210AF06858216F51522858216F515D2AF22EC8EF0A4CCC5F0CCCDF8EFA4CEC5F02DFDE43CFCE8A42EC8C5F03DFDE43C42
:40048000FCEFA4FFE5F028FEE43DFDE43CFC22E709F608DFFA8046E709F208DFFA803E88828C83E709F0A3DFFA8032E309F608DFFA806EE309F208DFFA806688828C83E3D0
:4004C00009F0A3DFFA805A89828A83E0A3F608DFFA804E89828A83E0A3F208DFFA804280D280FA80C680D4805580F28029801080A680EA809A80A880DA80E280CA8029884E
:40050000848C8589828A83E493A30586F0A30586DFF5DEF3800B89828A83E493A3F608DFF9ECFAA9F0EDFB2288848C8589828A83E0A30586F0A30586DFF6DEF480E3898214
:400540008A83E493A3F208DFF980D688F0EF60010E4E60CD88F0ED2402B4040050C3F582EB2402B4040050B923234582239004DF73E6FC08E6FD08E6FE08E6FF22E2FC0878
:40058000E2FD08E2FE08E2FF22E493FC740193FD740293FE740393FF22ECF608EDF608EEF608EFF622ECF208EDF208EEF208EFF2227B007A4679E8121A38EF4405FD7B008F
:4005C0007A4679E8121A44751400E514C39408503AAF14EF75F005A424BAF582E4341AF583AF82AE838E088F09AE08AF098F828E8312040CAE08AF098F828E83740393FC68
:40060000740493FD1218F0051480BF751400E514C394015078AF14EF75F008A424E2F582E4341AF583AF82AE838E0A8F0BAE0AAF0B8F828E8312040C8B0C8A0D890EAE0AED
:40064000AF0B8F828E83A3A3A312040C8B0F8A108911AE0AAF0B8F828E83740693F512740793F513AB0FAA10A911C003C002C001AB0CAA0DA90E900048120403D001D002DA
:40068000D003AF13AE121217A7051480817B087A0079001218097B007A5879487D037C00121A1D7B017A507903121A38EF4402FD7B017A507903121A447B017A5079131291
:4006C0001A38EF4402FD7B017A507913121A449043A0E0FFEF4440FF9043A0EFF09043C2E0FFEF4410FF9043C2EFF07B087A02793CC003C002C0017B007A51790290004861
:40070000120403D001D002D0037F087E001217A77B087A027944C003C002C0017B007A5179C2900048120403D001D002D0037F087E001217A77B087A02794CC003C002C08D
:40074000017B007A517962900048120403D001D002D0037F087E001217A79044F47401F0904322E0FFEF4408FF904322EFF09046ECE0FFEFC394055006904689743AF0903D
:40078000480074F1F0120A5190480074B1F01214847B007A4379A0C003C002C0017B007A4379B0900048120403D001D002D0037F0E7E001217A79043B0E0FFEF54FDFFEFCE
:4007C000F0227F947E017D007C009000731203EE905100E0FFEF5480FFEFF0905102E0FFEF54F0FF900072EFF0900072E0FFEF440FFF905102EFF0905103E0FFEF54F0FF47
:40080000900072EFF0900072E0FF905103EFF0905104E0FFEF54F0FF900072EFF0900072E0FF905104EFF0905100E0FFEF54DFFFEFF0905100E0FFEF4440FFEFF07F007EE9
:40084000001217DC905100E0FFEF4410FFEFF07F017E001217DC905101E0FF900072EFF0905100E0FFEF54EFFFEFF07F007E001217DC900072E0FFEF5408FF900072EFF00F
:40088000905100E0FFEF4410FFEFF07F017E001217DC905100E0FFEF54EFFFEFF0900072E0FFEF70077F0A7E001217DC9000731203D67BFF7AFF79FF78FF1202209000732A
:4008C0001203EE900072E0FFEF60129000731203D6D3EF9400EE9400400302083D905100E0FFEF54BFFFEFF0905100E0FFEF5480FFEFF0905102E0FFEF54F0FFEFF09051AE
:4009000003E0FFEF54F0FF900072EFF0900072E0FFEF440FFF905103EFF0905104E0FFEF54F0FF900072EFF0900072E0FFEF440FFF905104EFF0227BFF7A1A79EAC003C00A
:4009400002C0017B017A007960A801AC02AD03D001D002D0037E007F0A12054B7BFF7A1A79F4C003C002C0017B017A00796AA801AC02AD03D001D002D0037E007F0A1205CA
:400980004B7F001219DF7B017A0079607D0A1215A9121285EFB409F990005EE4F0A37409F090005EE0FEA3E0FFC3EE64809480402412139390005EE0FCA3E0FD746A2DF5C0
:4009C0008274003CF583EFF090005E74FF75F0FF12020A80CC900071E0FF7E00EF7F00FE900070E0FD7C00EF2DFFEE3CFE900074EEF0A3EFF01218B07F011219DF9000740D
:400A0000E0FEA3E0FF7E00EF5403FFEF64014E7030900074E0FEA3E0FFEF7802CEC313CE13D8F9FFEE543FFCAD07E41201257B007A0079B4783C12001A90005A1203EE8073
:400A4000097F007E007D807CBF2290005A1203D6227B007A4079807DEF7C00121A1D9040827418F09043007402F09040007408F09042007403F07B0C7A017908121A3890CD
:400A800046A1EFF07B007A4279227D087C00121A1D7B007A4279207D517C12121A1D900047E4F07F197E007D007C009000431203EE9000431203D6D3EF9400EE9400404E2B
:400AC000900047E0FFEF64036044904225E0FFEF5401FF7E00900047E0FEEE25E0FEEE4FFFEF5403FF900047EFF07FE07E017D007C001217009000431203D67BFF7AFF79A8
:400B0000FF78FF1202209000431203EE80A39000431203D6EF4E70057F031219CD7B007A4079047D007C01121A1D9040047407F0904006E4F09040087448F0904004E4F01E
:400B40009040017402F09043A2E0FFEF4401FF9043A2EFF02275930078007583467582E8E04401F0009046ECE0F99046FAE0FAB903225420B40012B8001AEA901FFFF07464
:400B800001901FFEF09046F6F0901FFEE06005901FFFE0FA90480074C0F075811690000078007920E4F0A3D8FCD9FAEA9000A8F002001175151F7516FD1213E81205B1026D
:400BC0000BFD021227E493A3F8E493A34003F68001F208DFF48029E493A3F85407240CC8C333C4540F4420C8834004F456800146F6DFE4800B010204081020408090166087
:400C0000E47E019360BCA3FF543F30E509541FFEE493A360010ECF54C025E060A840B8E493A3FAE493A3F8E493A3C8C582C8CAC583CAF0A3C8C582C8CAC583CADFE9DEE7A7
:400C400080BEC0E0C083C082C085C084C086758600C093759300C0D075D000C006C007900081E0FFEF5440FF90656BE0FEEF4EFF90007FEFF090007FE0FF900081EFF09042
:400C80000081E0FFEF20E503020D0E90655AE0FF900080EFF0900099E004F0900099E0FFEFC3940A4005900099E4F0900083E0FF900099E0FEEEB5071C900083E004F090D6
:400CC0000083E0FFEFC3940A4005900083E4F090009B7401F0900080E0FF900099E0FE74842EF582E43400F583EFF0900081E0FFEF5440FF90656BE0FEEF4EFF90007FEF9A
:400D0000F090007FE0FF900081EFF0020C7FD007D006D0D0D093D086D084D085D082D083D0E03290007BEFF090008EE0FF90007DEFF090007DE0FFEF700890007D7409F082
:400D4000800690007DE014F090009AE0FF90007DE0FEEE6F60D2121A69900082E0FFEF5409FF906569E0FEEF4EFF90007CEFF090007CE0FF900082EFF090009AE0FF9000D0
:400D80008EE0FEEEB50715900082E0FFEF30E20C90007BE0FF90654AEFF0806190009AE004F090009AE0FFEFC3940A400590009AE4F090008EE0FF90009AE0FEEEB5071CBC
:400DC00090008EE004F090008EE0FFEFC3940A400590008EE4F090009C7401F090007BE0FF90009AE0FE748F2EF582E43400F583EFF0906589E0FFEF4404FFEFF0121A5BEA
:400E00002290005A1203EE90006A740AF090006AE0FF745F2FF582E43400F583E4F090006AE014F090005A1203D6C3EF940AEE940040577B0A7A007900780090005A12037A
:400E4000D61202B8AC00AD01AE02AF03EF2430FF90005EEFF090005EE0FF90006AE0FE745F2EF582E43400F583EFF090005A1203D67B0A7A00790078001202B890005A12EC
:400E800003EE90006AE014F0809A7B0A7A007900780090005A1203D61202B8AC00AD01AE02AF03EF2430FF90005EEFF090005EE0FF90006AE0FE745F2EF582E43400F58340
:400EC000EFF090006AE0FF745F2FF9E43400FA7B0112143622C0E0C083C082C085C084C086758600C093759300C0D075D000C006C00790009AE0FF90008EE0FEEE6F60685D
:400F0000900082E0FFEF5409FF906569E0FEEF4EFF90007EEFF090007EE0FF900082EFF0900082E0FFEF30E23F90009CE0FFEF701890008EE004F090008EE0FFEFC3940A40
:400F4000400C90008EE4F0800590009CE4F090008EE0FF748F2FF582E43400F583E0FF90654AEFF0808C808A90009AE0FF90008EE0FEEEB5070B906589E0FFEF54FBFFEF22
:400F8000F0D007D006D0D0D093D086D084D085D082D083D0E0327F287E007D007C0012109B7F031214D27F057E007D007C0012109B7F031214D27F0F7E007D007C0012105D
:400FC0009B7F031214D27F017E007D007C0012109B7F021214D27F057E007D007C0012109B7F061217717F0E1217717F2C1217717F081217717F011217717F0C1217717F8D
:40100000031217717F057E007D007C0012109B7BFF7A1A797A1215622290005AEFF090005BECF0A3EDF090005AE0FFEFD3941F5003D38001C340057F0012196490005AE0DA
:40104000FFEF541FFF7E00EF25E0FFEE33FEEF2400FFEE3444FEAA06A9077B01121A1090005DEEF0A3EFF090005AE0FF7E02EF8EF0A4FFAEF0EF2400FFEE3444FEAA06A9DF
:40108000077B0190005BE0FEA3E0FFAD07AC06121A1F90005DE0FEA3E0FF2290FFFC12043E1203EE8515838516821203D6D3EF9400EE9480402F9000A91203D612170085A2
:4010C0001583851682C083C0821203D6EF2400FFEE3480FEED34FFFDEC34FFFCD082D0831203EE80BF90009F1203D68515838516821203E212022D12170090000412043E5D
:401100002290658A740FF09044C87402F07D077F011211C87C0E7DD57F011210199044C87401F07D077F001211C87C0C7D427F0012101912169890009BE4F0900083E4F07D
:40114000900099E4F090009CE4F090008EE4F090009AE4F0121862121889906589E4F090658B7420F02290005AEFF090005AE0FFEF5403FF905840E0FEEE54FCFEEE4FFF76
:40118000905840EFF090005AE0FFEFB4011D7B0C7A017910121A38904630EFF07B0C7A017914121A38904631EFF0227B0C7A0179AD121A38904630EFF07B0C7A0179B5121C
:4011C0001A38904631EFF02290005AEFF090005BEDF090005BE0FFEFD394075003D38001C340057F0012196490005AE0FFEFD3941F5003D38001C340057F00121964900095
:401200005BE0FFEF5407FF7E00EF75F020A4FFAEF090005AE0FEEE541FFE74802EF582E43444F583EFF022D2AF9044F474FDF01219FF121A50120F961219797F011217719E
:401240001209379000541203EE9000541203D612015E900058EEF0A3EFF07D007F0012133C7F011217711207C2900058E0FEA3E0FFE4FCFD120E017FE87E037D007C001222
:40128000109B80BC22121A70900099E0FF900083E0FEEEB50707900076E4F0803B900099E0FF900083E0FEEEC39F5015900083E0FF900099E0FEC3EE9FFF900076EFF080EF
:4012C00017900083E0FFC3740A9FFF900099E0FEEF2EFF900076EFF0121A62900076E0FF22900072EFF0905100E0FFEF4420FFEFF0905100E0FFEF54BFFFEFF07F007E00FA
:401300001217DC905100E0FFEF54F0FFEFF0905100C083C082E0FF900072E0FEEE4410FEEF4EFFD082D083EFF07F017E001217DC905100E0FFEF54EFFFEFF02290005AEFE4
:40134000F090005BEDF090005AE0FFEF120418135F00136C011379021386030000139290005BE0FFEF2480FF1217712290005BE0FFEF24C0FF1217712290005BE0FFEF24C1
:4013800094FF1217712290005BE0FFEF24D4FF12177122121A70900099E0FF900083E0FEEE6F602590009BE0FFEF7018900083E004F0900083E0FFEFC3940A400C900083F2
:4013C000E4F0800590009BE4F0900083E0FF74842FF582E43400F583E0FF900076EFF0121A62900076E0FF22900043E4F0900043E0FFEFD3941F503D900043E0FF7E02EFA0
:401400008EF0A4FFAEF0EF2400FFEE3444FEAA06A9077B01C003C002C0017BFF7A1A7977AC02AD01D001D002D003121A1F900043E004F080B82290006B12040390006E74B3
:4014400001F090006B1203FA1201DFFF90006FEFF090006FE0FFEF602A90006FE0FF12173B90006B1203FA90006EE0FFE92FF9E43AFA1201DFFF90006FEFF090006EE00448
:40148000F080CE227B0C7A0179CF121A38900043EFF0900043E0FFEF5407FF90586EEFF0900043E0FFEFC4540FFFEF540FFF90586FEFF090510D7480F0905A907410F0909E
:4014C0005AC07480F0905AC47410F09058767444F022900060EFF0905100E0FFEF549FFFEFF0905100E0FFEF54F0FFEFF0905100C083C082E0FF900060E0FEEE4410FEEF42
:401500004EFFD082D083EFF07F017E001217DC905100E0FFEF54EFFFEFF022905828E0FFEF540CFF7E00EF7802CEC313CE13D8F9FFEF2406FF90005BEFF090005BE0FFE4DC
:40154000FCFDFEEF2428FFEE3401FEED340CFDEC3400FCA907AA06AB05121A3890460AEFF02290005A1204031207C27F4012177190005DE4F090005DE0FFEFC394405020C4
:4015800090005A1203FA90005DE0FFE92FF9E43AFA1201DFFF12173B90005DE004F080D51207C27F8012177122900076120403900079EDF090007AE4F0900079E0FFEFD3AF
:4015C000940040269000761203FA90007AE0FFE92FF9E43AFA1201DFFF120D2390007AE004F0900079E014F080CF227F01121166905840E0FFEF4420FFEFF0905840E0FF13
:40160000EF54FBFFEFF0905840E0FFEF4408FFEFF0905AC7E0FFEF54E7FFEFF0905AC7E0FFEF4410FFEFF0221219B890005AEFF090659AE0FFEF4420FFEFF0906599E0FF4B
:40164000EF4410FFEFF090659BE0FFEF4410FFEFF090005AE0FF121909121A5B121A622241009D004400A4016E360044009F00005DC04100A3184400A92EE000004100B32F
:40168000004100B2004100B4004100B5004300AD0000004100B6000090656BE0FFEF30E50790655AE0FF80F01219B890005AEFF090659AE0FFEF4401FFEFF090659AE0FFE3
:4016C000EF54FEFFEFF090005AE0FF1219092290005AEFF0905828E0FFEF54F3FFEFF0905828C083C082E0FF90005AE0FEEE540CFEEF4EFFD082D083EFF012151B22000034
:40170000EC4D4E700D78FCEF24E950032840FD2200007BF178DA0000EF28FF78FFEE38FEED38FDEC38FC50E7EF2BFFEE38FEED38FDEC38FC40F22205020304900070EFF0B3
:401740001207C2900070E0FFEFC4540FFF900071EFF0900071E0FF1212E1900070E0FFEF540FFF900071EFF0900071E0FF1212E12290005EEFF01207C290005EE0FFEFC496
:40178000540FFF90005FEFF090005FE0FF1214D290005EE0FFEF540FFF90005FEFF090005FE0FF1214D222758600EF4E6027EF60010E759300900048E0F595A3E0F585A358
:4017C000E0F5848B938A838982E0A30586F0A31586DFF6DEF4E4F593F5952200EEFA9000A3E0F88FF0A4FFAEF0E88AF0A42EFEE5F03400FDEF24C9FF78FFEE38FEED38FDDC
:40180000E438FC500302170022ACEAADA08B938A838982E0F96017A3E0F5EAA3E0F5A0A3E060F4FAA3E0F8A3E0F2DAF8D9E98DA08CEAE4F5932290005AEFF0905828E0FFE1
:40184000EF54FDFFEFF0905828C083C082E0FF90005AE0FEEE5402FEEF4EFFD082D083EFF022121A69900082E0FFEF5409FF906569E0FEEF4EFF90005AEFF0900082E4F0F2
:40188000121A5B90005AE0FF22121A70900081E0FFEF5440FF90656BE0FEEF4EFF90005AEFF0900081E4F0121A6290005AE0FF2290656BE0FFEF30E50790655AE0FF80F01F
:4018C000121A7090009BE4F0900083E4F0900099E4F0121A62229000B5E0FFEF70091219A39000B57401F01219387FFF1219EF22EC4D6011ED60010C8B938A838982E4F08A
:40190000A3DDFCDCFA75930022EF54016004D2AF8002C2AFEF5402FF9044F4E054FD4FF0229043A7E0FFEF4401FFEFF09043B7E0FFEF4401FFEFF0229043A8E0FFEF4404D8
:40194000FFEFF09043B8E0FFEF4404FFEFF02290009DE0FFEF700912110190009D7401F01216282290FFFF12043EEFF09046EA7401F090000112043E229000B2E0FFEF70DF
:4019800009120F969000B27401F0121A2C229000B4E0FFEF70091215EB9000B47401F012192122905828E4F0905829E4F07F041216CF7F00121836229044F4E0F84402F078
:4019C000E85402FF10AF012274014FFF22900048EFF0900048E0FF900048EFF080FE22900076EFF0900076E0FF906579EFF02290005AEFF090005AE0FF905B82EFF02212D3
:401A0000194F12198E1218D67F011219DF228B938A838982E0FFA3E0FE759300228B938A838982EDF0A3ECF0759300227F0C1217719000B37401F0228B938A838982E075E3
:401A40009300FF228B938A838982EDF0759300227F081217719000B3E4F0229044C07402F0229044C07401F0229044C87402F0229044C87401F02280FE32000E0808080EB9
:401A80000000000A0A0404040000000E0A0E08080000000E0A0C0A0A0000000E080C080E0000000E080E020E0000000E080E020E0000000404040004000000511000500037
:401AC00051F0001001000010000114000600011A8001800140000A00014C0002000150000020011A000801BC0080AAFFFFFFFFFFFFFFFFFF0000FFFFFFFFFFFFFFFF000049
:401B000000000000000000000000000000000000000000000000000000000000000000000000000000000000000000000000000000000000000000000000000000000000A5
:401B40000000000000000000000000000000000000000000000000000000000000000000000000000000000000000000000000000000000000000000000000000000000065
:401B80000000000000000000000000000000000000000000000000000000000000000000000000000000000000000000000000000000000000000000000000000000000025
:401BC00000000000000000000000000000000000000000000000000000000000000000000000000000000000000000000000000000000000000000000000000000000000E5
:0200000480007A
:40000000160052033040310161100065018A0F011501E602011701E20401181685AB874489068B108F60954D978299C89B219F10A380B1E0B307B510B708B908BF50D4099C
:40004000D604D904DB04DF0101191420582301290232603308385459095A405B1063816A8083408C40A201B601CA01CC0ECE0ED60FD809011A1A80D28423860C88238A184A
:400080008CD294D0960298D29C02A401A634AA80AC02AED0B040B21FB480B620B808BE11D440D604D804DB04DF01011B42002401010404060207880AA00B090C800E141087
:4000C0001812601580162418041A681B041D011F9E200821802220230828102A622B083180320439954004430A4804490A4A0150805254630866906760681869956A946B2D
:40010000807202730187408E848F80940496409D0BA201A480A620A708A880AB10B004C0FEC2EFC4EECA0FCC0ACE0FD007D20CD8F401400332203580CC300141029D80A60A
:40014000200142029D80A6200143029D80A620014406292053015C02CA08D401D601014503970299209C02014603970299209C02014703970299209C0201480481809D8031
:40018000A620E2200149038620A620E640014C068C0197029C02B520E002EA08014D0870018F0190029702B002DC01E002E80401500210011C01015101000F00709D000009
:4001C000639D8C00701D0080008D00102000500002111D22830074007002000D209D000021E2DA18504220940080004080001F0060F0000F000008B00000010036024000AA
:4002000005BEFC0D1FFFFFFF2200F00C040000000000022404040404000000010000C00040011011C00100114001400100000000000000000000000000000000007F7F0009
:40024000000080000010100010000000004141004100000000000000000000000000000000000000000000000000000000000000000000000000000000000000000000000B
:40028000000000000000000000000000000000000000000000000000000000000000000000000000000000000000000000000000000000000000000000000000000000003E
:4002C00000000000000000000000000000000000000000000000000000000000000000000000000000000000000000000000000000000000000000000000000000000000FE
:4003000000000000000000000000000000000000000000000000000000000000000000000000000000000000000000000000000000000000000000000000000000000000BD
:40034000000000000000000000000000000000000000000000000000000000000000000000000000000000000000000000000000000000000000000000000000000000007D
:0200000490006A
:0400000000004005B7
:0200000490105A
:04000000BC90ACAF55
:0200000490303A
:02000000477B3C
:0200000490501A
:0C00000000011E02806903011E10C7E40D
:0200000490402A
:4000000000000000000000000000000000000000000000000000000000000000000000000000000000000000000000000000000000000000000000000000000000000000C0
:00000001FF
